:020000040800F2
:10000000580A00200D4A00088D4800088F48000853
:1000100000000000000000000000000000000000E0
:1000200000000000000000000000000091480008EF
:1000300000000000000000009348000895480008F8
:100040002F12000800000000CF130008E31800087A
:10005000E7180008B73F0008334700088B4800083E
:1000600000000000614900088F4900089B49000812
:10007000954A0008974A0008994A000800000000C5
:100080009B4A000800000000000000009D4A000894
:10009000000000009D480008A74800089F4A00088B
:1000A00000000000A14A000800000000B14800085C
:1000B0000100202008437047FDB5B4B03C9802AA67
:1000C0000024002318C2069104A93B2288540F93F0
:1000D00019A8401C33900BE02300359A04A93498EA
:1000E00000F0FEFF002800D539E135980019359061
:1000F0003598007825280DD1002009900A900B90A2
:100100000C900D900E900225042118910821149155
:10011000359C0FE002AA0021C943359801F034F85C
:10012000040001D10F981CE1D6D50124DDE70100C0
:1001300001200843641C21782029F8D023290BD002
:100140002B2904D02D2904D0302908D00AE02843D7
:10015000F0E701001898ECE701000820E9E701004A
:100160001020E6E72A290FD136990A681168121D76
:10017000369B1A601191002904D54A421192010060
:1001800018980843641C12E000211191984909E075
:10019000119B8B4205DA9E00F3185B009A18303AE7
:1001A0001192641C22781300303B0A2BF0D3217883
:1001B0002E2903D00021C943109127E0641C217827
:1001C0002A2908D136990A681168121D369B1A60CF
:1001D0001091641C1AE02D2902D12D23641C00E02B
:1001E000002300211091824F0BE0002B08D11099C1
:1001F000B94205DA8E00711849008918303910911A
:10020000641C2278110030390A29EED304A908872A
:100210002678310056487844FF30573000F0C6FF4A
:10022000002801D0641C00E0002604A83A214654AE
:1002300004A9682E06D1207868280DD162203A22C0
:10024000885408E06C2E07D120786C2804D17120E6
:1002500004AA3A215054641C24A8089021786846C6
:100260000170601C3590684604782100253934D02F
:100270001C3900D156E1091F022900D852E10E397C
:1002800031D0491F01D100F0B8FC093900D149E152
:10029000891E01D100F04FFD491E01D100F0FBFC89
:1002A000491E022900D83DE1091F01D100F0F3FCED
:1002B000491F00D18EE0491E01D100F09EFC491E6D
:1002C00075D0C91E27D0891E01D100F096FCC91E29
:1002D00001D100F092FC00F04DFD01200990252194
:1002E00024A8017033E06C2204A93A200A543698FD
:1002F00000680268011D36980160002A50D104A9E7
:100300003B20085C002848D00024E4433748784468
:10031000FF30253817E004A93A20085C6C28E6D0A5
:10032000369800680468011D369801600794002C17
:1003300020D104A93B20085C002814D00024E44309
:100340002C487844AE3000F03BFF201A07D124AA95
:1003500004A9349800F020FD002800D4C8E600204D
:10036000C04337B0F0BD244878448C300790EEE7A6
:1003700010440000109D002D03D5200000F044FF24
:1003800009E02A000021200000F046FF002801D0EB
:10039000001B00E028000A90D9E7184A7A445C3232
:1003A00004A9349800F082FD0028D0D5D7E736980C
:1003B00000680268011D369801600020C0430021DA
:1003C000104004AA03C224A80790782104A800F0D2
:1003D000CCFDBCE704A83B21415C002910D00024DF
:1003E000E4434E487844FF303530ACE7EC4300003E
:1003F000CBCCCC0CC4430000DC430000F84300002D
:100400003A21405C62286BD068281CD06A2847D00B
:100410006C2806D0712855D0742833D07A2823D080
:100420006EE03698016808680A1D36990A6000284F
:1004300006D10024E4433A487844FF301B3882E771
:100440000F99016083E73698016808680A1D36999C
:100450000A60002805D10024E44331487844C030C4
:1004600071E70F99018072E73698016808680A1DE4
:1004700036990A600028E3D10024E44328487844F0
:100480009E3060E73698016808680A1D36990A6050
:100490000028D5D10024E44321487844823052E733
:1004A000369800680268011D36980160002A05D15F
:1004B0000024E4431A487844663044E70F98C11793
:1004C00003C244E7369800680268011D369801604F
:1004D000002AF3D10024E44311487844423032E743
:1004E0003698016808680A1D36990A60002805D107
:1004F0000024E4430A487844263024E70F99F0E6C4
:100500003698016808680A1D36990A60002897D154
:100510000024E44302487844801D14E76C42000044
:100520008042000036980068C21D0720824304A85C
:100530003A21405C4C283698026003CA02D1369BAF
:100540001A6004E0083A13000833369A136004AACC
:1005500003C2C80F02D009982D220AE004A8008F18
:10056000284202D009982B2203E0C00705D509983C
:10057000202224A90A54401C099024A80999401853
:100580001590079019AD04A803C816AA03C26846BF
:100590000178202008436946887068468078612881
:1005A0000BD01098002801D5062005E005D168463B
:1005B0008078672801D10120109004A803C80B009F
:1005C00002185B415A15DB17BAA6C0CEBB4216D142
:1005D000B24214D10903020D11430003002901D1D5
:1005E00000280CD003200A90613C1A2C19D31C4916
:1005F00079446C310322159800F034FEA7E604A874
:1006000003C8080041004915B1420ED100030CD1C6
:1006100003200A90613C1A2C1DD3124979444431BD
:10062000E8E7114979444031E4E701AA04A803C886
:1006300000F025FE04AA03C26846807861281CD118
:10064000079830210170811C07916946097861295A
:100650000ED178210DE0054979441031CAE700BF79
:100660009C410000A0410000904100009441000026
:10067000582141700998801C099004A803C832468B
:10068000530802400B4004D1002A02D10024002666
:1006900055E168468078612800D096E010980028DF
:1006A00001D5212000E0401C1590159F7F1C16A845
:1006B00003C80022002300F0F7FD04A830C802D2CE
:1006C0008020000645400198001F019019A90A707A
:1006D00019A8461C002F31DD2000290000228023AC
:1006E0005B0300F0FAFD29D81C2200F00FFE040085
:1006F0000D0000F043FE1690FF1F002F09DD00F0F3
:1007000077FE02000B002000290000F0D8FE040054
:100710000D00F01D0722169900290ADD521E08D48B
:10072000401E0B071B0F03700911F5E7401E002147
:100730000170521EFAD5C61D002FCDDC19A83399C1
:10074000711A19AA551C159A0C00914200DD14006B
:10075000002C33D48C4205DA411C095D082901DBE9
:100760000F2100E00021220019AB9B1801E0641E5C
:100770005B1E521E1E788E42F9D00F2904D1411CF7
:10078000895C491C401C8154002A04D519AD641CA5
:100790000198001D0190611E10D46B186846007806
:1007A0001A783032D6B23A2E01DB8218C6321A706D
:1007B000491E5B1E0029F3D5694608701098002871
:1007C00000D4BBE0601E1090B8E016A830C86D00E1
:1007D0006D08019867494843674900F0E7FE0190BA
:1007E0000721081A002805DD02002000290000F07A
:1007F0004FFC0AE042420020604900F049FC020040
:100800000B002000290000F000FF6A469278662A5B
:1008100002D1019A0A3200E00622109B9A18142A8B
:1008200000DD142219AC3023237019AB5C1C02E0EC
:1008300016A803C8159A002A40DD16AB03C315920B
:1008400016A803C800F0ACFD239006460834189D96
:1008500030000A2100F0BEFE0F0030000A2100F037
:10086000B9FE06003037601E077030000A2100F024
:10087000B1FE0F0030000A2100F0ACFE0600A41EFD
:10088000303727706D1EE3D108341598083815905D
:100890000028CDDD239800F09BFD02000B0016A878
:1008A00003C800F00CFE0022354B00F00FFF16AA23
:1008B00003C2C5E7FFFFFFFFFFFFFFFF3398201ACA
:1008C00019A94D1C04E0401E0199491E01916D1C9F
:1008D00029783029F7D069468978662902D1019AAA
:1008E000521C06E069468978652901D1012200E0A1
:1008F000002210998C18A04200DA441E002C1DD44E
:10090000844204DA285D342801DD392000E03020FB
:1009100021006A1E531801E0641E5B1E491E1E78EA
:100920008642F9D0392802D1685C401C68540029FD
:1009300004D51500641C0198401C0190019E15957A
:1009400068460178417000F029FC406A01786846E9
:100950000170109D20B2002804DC01240448784472
:100960000E3015906846807866280BD1761C24E0FE
:10097000983E000097750000A08601000000F03F3F
:1009800084D7974168468078672848D131B20320E0
:10099000C043814249DB30B2A84246DA761C04A843
:1009A000018F1498C9B2014203D120B2A84200DCE1
:1009B000050030B22D1A00D500250A990798401875
:1009C00037B2002F00DDB7E0491C0A9130210170D9
:1009D000002D05DC04A8018F1498C9B2014206D08D
:1009E0000A98411C0A9169460978079A115478427D
:1009F000854200DA6E4236B270420D90AD1920B2D7
:100A0000854200DA2C0024B20B9422001599079B32
:100A10000A98181800F026FC281B0E90D2E06846B1
:100A20004078612816D1702119E020B2A84206DA78
:100A300004A90A8F1499D2B20A4200D105006D1E92
:100A400000D5002568464078672801D1652106E079
:100A5000452104E068464078412802D1502168468B
:100A600041700A98411C0A9115990A7807990A540D
:100A70001598411C002D05DC04A8028F1498D2B2F1
:100A8000024219D00A98421C0A926A461278079BC1
:100A90001A54002D10DD641E20B2854200DA2C00AD
:100AA00022B207980A9BC01800F0DCFB24B20A9817
:100AB00000190A90281B0D9007980A99411868465A
:100AC0004078087030B2002803D42B2048708F1C67
:100AD00003E02D224A708F1C4642002414AD3000E2
:100AE00008E00A2100F062FD17AA03C229701798D6
:100AF000641C6D1C00B20028F3DC012C08DC684685
:100B0000417820200843652802D1302038707F1CAE
:100B1000002C09D1302038707F1C07E0641E14A817
:100B2000005D303038707F1C002CF7DC07980A9984
:100B30004018381A0B9045E021B232B291421ADACD
:100B400022B2159900F08EFB24B20A9800190A907F
:100B5000391B0D91002D05DC04A90A8F1499D2B21E
:100B60000A4206D069460A7807990A540B98401C35
:100B70000B900E9526E0159900F074FB0A98C019A9
:100B80000A90A41B002D05DC04A90A8F1499D2B287
:100B90000A4205D0411C0A9169460A7807990A540D
:100BA00020B2854200DA2C0022B21598C119079BA9
:100BB0000A98181800F056FB24B20A9800190A90F7
:100BC000281B0D9004A83821405C142101401029F5
:100BD00001D0FFF7BCFB09980A9940180D994018FD
:100BE0000B9940180E9941181198814201DBFFF7CB
:100BF000AEFB401A0C90FFF7AAFB04AA3A20105C47
:100C0000622808D068280ED06A2814D06C281DD01D
:100C1000712810D01AE03698016808680B1D3699C3
:100C20000B60C0B218E03698016808680B1D369951
:100C30000B6080B210E036980068C31D0720834324
:100C40003698036003CB369C236006E03698016833
:100C500008680B1D36990B60002104AB03C3118F8C
:100C60001498C9B201425ED004A803C8002901D17A
:100C7000002858D06846007820210143782952D1B5
:100C8000099924A830224254491C4A1C09926A46F8
:100C90001278425447E004AA3A20105C622808D037
:100CA00068280ED06A2814D06C2820D0712810D063
:100CB0001DE0369801680868091D369B196040B22E
:100CC0001BE0369801680868091D369B196000B260
:100CD00013E036980068C31D0720834336980360ED
:100CE00003CB083B1C000834369B1C6006E036989A
:100CF00001680868091D369B1960C11704AB03C35E
:100D0000002902DA09982D2109E0108F284202D02B
:100D100009982B2103E0C00705D50998202124AAB2
:100D20001154401C099024A809994018079068465E
:100D30000178FFF74BFB04A83A21405C6C280BD0EC
:100D400001200990369801680868091D369A1160DB
:100D500024A90870FFF7FBFA369801680868091D96
:100D6000369A1160009000200190C04310906A46AE
:100D7000FFF716FB01200990252124A80170684681
:100D80000078002801D1FFF7E2FA0995684601785A
:100D900024A84170FFF7DBFAFEB506000D0017002E
:100DA000696B6869091A286A091AA869091A686AC0
:100DB000091AE869091AA86A081A01903820285CFB
:100DC000400710D4202168460170019800280ADDF0
:100DD000019C01236A462900300000F081F90028B7
:100DE00060D1641EF5D13A006B692900300000F033
:100DF00077F9002856D13027684607702C6A002CF6
:100E000009DD01236A462900300000F069F9002855
:100E100048D1641EF5D1AB69EA682900300000F0C2
:100E20005FF900283ED1684607706C6A002C09DD26
:100E300001236A462900300000F052F9002831D120
:100E4000641EF5D1EB69E968A8690A182900300029
:100E500000F046F9002825D168460770AC6A002CDE
:100E600009DD01236A462900300000F039F9002825
:100E700018D1641EF5D13820285C400710D52021F8
:100E800068460170019800280ADD019C01236A462A
:100E90002900300000F024F9002803D1641EF5D1A8
:100EA000002001E00020C04303B0F0BDF0B5A7B0C2
:100EB00004000D0016002F6B002F00D5854F00F0A9
:100EC000C7FC696B081803A9002300220CC1812804
:100ED00037D2029206940095002424E0AF4233DB1F
:100EE00000984069401981280BD30098446307AAF1
:100EF00000990698FFF750FF0290002824D400982C
:100F000044610098406905902A0001A907AB1818B0
:100F100000F0A8F905984019009948613068002848
:100F200012D0361D7F1B002F0EDD03AA316801A8E9
:100F300000F02FF9050004D430680028CED16D1ED2
:100F4000CCD50020C0430EE0069B009C02980028F0
:100F500004D107AA21001800FFF71EFF002802D1C4
:100F600000216161616327B0F0BDF2B586B0040075
:100F700025696F2901D1082707E00846FFF798F88F
:100F8000782801D00A2700E010273C2603CC083C33
:100F900004AA03C26A46127E642A03D06A46127EFD
:100FA000692A09D1002907DA04A803C8002200230E
:100FB000121A8B4104A80CC004A803C800290ED142
:100FC00000280CD1206B002809D1082F3ED13820F1
:100FD000205C00073AD53B263021A95536E0029423
:100FE000009504A830C8761E0196200029003A001A
:100FF000002300F032FC3032D0B23A280DDA0098EB
:101000008255200029003A00002300F026FC04004D
:101010000D0007D1002C05D10AE06846007E821839
:10102000AF32ECE70298C068009989198842DAD398
:10103000029C009D082F09D13820205C000705D5AF
:10104000A85D302802D0761E3020A8553C20801B99
:10105000A061A919E160216B884206DA081A2062B2
:10106000208F1D490140218710E000290ED538212D
:10107000615C14220A40102A08D1626B6169521A1D
:10108000216A511A081A002800DD206207B0F0BD5D
:10109000F8B50026114F04000D00009214E0C007BF
:1010A00007D532003B002000290000F00FFB0400B0
:1010B0000D000098401000903000390032003B00D5
:1010C00000F004FB06000F0000980028E7D1200084
:1010D0002900F4BDFFFFFF7FEFFF00000000244068
:1010E000F8B50024002B11D007000E0015001C00DD
:1010F0002978B068B847B060002809D0F06A401C71
:10110000F06200206D1C641EF2D104002000F2BDCC
:101110000020C043F9E703685A1C02601970704749
:101120002048704730B45368D41803E05B1C491E54
:10113000641C401C042B06DA002904D005782570B5
:101140000578002DF2D1536030BC704738B50029C6
:101150000ED01D001400FFF7E5FF616820006A6BE8
:1011600090470121C943421A02D0521E02D004E026
:10117000012000E00020C04332BD0021616032BD8B
:1011800080B5DA6B904702BD80B5064BFFF7DEFFF6
:1011900002BD80B5034BFFF7F3FF02BD0248704765
:1011A00000000000A001002068010020C9B2027800
:1011B0008A4203D0401C002AF9D1002070472E003B
:1011C00080B5002801D100BF07A006490B68002B9D
:1011D00003D022220021984701E000F07CFB22206E
:1011E00002BD000054060020636F6E737472616963
:1011F0006E742068616E646C65723A20626164206E
:101200006D65737361676500431C0178401C09427A
:10121000FBD1C01A70474300C9B2521E05D30378F0
:10122000401C8B42F9D1401E704700207047FEE7FA
:1012300070B4103A03D378C9103A78C0FBD2530780
:1012400001D318C918C001D508C908C0D20704D3F2
:101250000B880380891C801C002A01D50B78037041
:1012600070BC70478B0701D18307E1D0124205D0D3
:101270000B78491C0370401C521EF9D1704710B501
:10128000144600F002F8226010BD4A0053155B1CA2
:1012900008D0520D06D003231B02FE3AD21A1305C2
:1012A000C91A70470022704730B4012464054D000C
:1012B000EC420BD85D00EC4208D80C001C436400E3
:1012C0000443144304D2994200D1904230BC704789
:1012D000FCD08B42FAD18242F8E730B40124640595
:1012E0004D00EC420BD85D00EC4208D80C001C43CA
:1012F00064000443144304D28B4200D1824230BCC8
:101300007047FCD09942FAD19042F8E7124217D4C4
:101310000023DB435B0D9C464B005B0D06D0634511
:1013200004D09B18634502D21205891870476246A3
:10133000090D11430905002000B500BF00BF00BD25
:1013400052424B005B0DF1D05B1C5B05EED25B0D96
:10135000934102D91205891A70470BD10B031B1355
:10136000C90FC907821C002043411343E4D9120569
:101370001143E1E7C90FC9070020DDE7F4464A1829
:1013800005D200F00FF801D580174008604700F043
:1013900009F80121C907884200D908004042604786
:1013A0004A1812D2400DC90208430121C907084357
:1013B000520D40210901521A521C06D452421F32CA
:1013C00001D4D0407047C017704700207047FEE737
:1013D000010042221201D21E004207D002D4521E46
:1013E0000018FCD5C10A4005120589187047000095
:1013F0000100EED54042F446FFF7EBFF0122D20791
:10140000114360478B4200D1824205D984461000C7
:1014100062468C4619006346DF184C18640D7F0D38
:101420003AD0661C760537D0E61B352E34DCDB025D
:101430002B43DB0A0C0DC9022943C912202E0DDBF8
:101440001700203E06D01F00F741F3405F40002602
:10145000012A7741C01871410DD217E01700F741FA
:10146000F2405740F3415A40B340F3405A400026FF
:10147000801859410AD3A21C52050FD0C207012F70
:10148000724117004008CB0718434908641C240523
:101490004208AF4170416141F0BC7047641C2105B6
:1014A0000020F9E76B4010E06B40ABE7F742F3D167
:1014B000E943F1E72442EFD100200021ECE7F0B44A
:1014C0000125ED070F005F40EED40C00871A9C4108
:1014D00005D2C01BA141D219634169406B40AE0ADD
:1014E000DF184C18F442E1D2640D7F0DE2D0E61B08
:1014F000362ED1DCDB022B43DB0AA4460C0DC902DD
:101500002943C90A012E28DC04D1D6075208DF0777
:101510003A435B08EF0A76429041994114D0394230
:101520003BD1B61940414941761C394204D1761C61
:10153000001849413942FAD0B9436746B74208D941
:10154000A41B24052143A7E70042EAD13642E8D193
:10155000A2E7E40AE10700209EE7202E0BDD203EF3
:101560001F00F340F7415F40012A002257417E42AD
:10157000984191410BE01700F741F2405740F34189
:101580005A40B340F3405A407E42904199410A0389
:1015900003D2641EB619404149410027641E240548
:1015A0004208AE4178416141F0BC7047CA0F00D09B
:1015B000494203105A400DD004B500D3404200F018
:1015C00009F8009AD20701D34942124200D540429D
:1015D00004BD0000094214D088420FD30122030C3D
:1015E00001D100041204002300185B418B4200D398
:1015F0005B1A5241F8D31900100070470100002017
:10160000704708B500F06CF908BDF0B40E005E40FC
:101610000125ED072E40B446AE0ADF184C18F442FF
:101620003BD2F74241D2640D43D07F0D38D0E41B4A
:10163000C902DB0229432B43CF0ADB0A0600B61A94
:101640009F4104D2641EB6197F41B6185F416812EB
:10165000800D24180018844222DCE80C0021B61901
:101660007F41B61A9F4102D2B6185F413F1C4041EC
:101670004941F4D3241C21DD2405B6197F41B61A53
:101680009F4105D33743C60737430026012F7041DA
:10169000614166463143F0BC7047FCD1F74205D248
:1016A0000020C14349054908F3E704D00020C143A5
:1016B000F1E77F0DFAD000206146ECE72442FAD131
:1016C000401C61410F03F6D30020E2E7F0B50E00A5
:1016D0005E400125ED072E40B446AE0ADF184C18D7
:1016E000F44208D2F7420ED2640D01D07F0D12D120
:1016F00000206146F0BD05D1F74201D87F0D05D12C
:101700000020C143F0BDFBD1640DF9D00020C143DE
:10171000490549088FE0E419C902DB0229432B433C
:10172000DB0A460DC00231438E4630B487B295B213
:101730007D432E0CADB2140C7C43A419260C24045A
:1017400025439CB27C43A419190C7943270CC91971
:10175000A4B20F043C43090C000C97B247432E0C73
:10176000BE193543ADB2170C4743360CBF19A6B2AC
:10177000BF193E043543240C3E0C36199FB2474333
:10178000BF19BCB23E0C89191F0C47437F183E0499
:101790003443390C704680B297B247432E0CBE19C1
:1017A0003543ADB2170C4743360CBF19A6B2BF196B
:1017B0003E043543240C3E0C36199FB24743BF19F3
:1017C000BCB23E0C89191F0C47437F183E043443BA
:1017D000390C77463F0C90B278432E0C80190604E2
:1017E000ADB22E43050CA0B22D18120C7A4350193D
:1017F000020C80B2240CA4189AB27A431219140471
:101800002043120C89181B0C7B43C91830BCEF0A0B
:10181000394203D1B61940414941641E6F12BF0DD0
:10182000E41B0BDBFF19BC4211DA24050027420838
:10183000AE417841614166463143F0BD641C05D13B
:10184000401C6141CF0201D34908F4E750E75DE74E
:1018500080B5FFF765FC006C02BD12422DD09942A5
:1018600031D970B500251B4209D00C00002112E0CF
:101870001100FFF7AFFE0A000021002370BD0942EE
:10188000F6D00024012649186441944200D3A41ADA
:101890007641F8D33100012601E0764109D20018E3
:1018A00064416D41A41A9D41F7D2A4185D41B61957
:1018B000F5D3300022002B0070BD1B42CFD108B5FC
:1018C00000F010F808BD01D19042CAD202000B000E
:1018D00000210020704780B5012000F005F801BD0F
:1018E0007047FEE77047FEE780B500BF00BF024AC1
:1018F00011001820ABBEFBE72600020038B504003B
:1019000014D0250078356868002803D1287020009D
:1019100000F040FD2420686022681068012188439F
:101920001060200000F02AFA012801D1012032BD08
:10193000606A002802D0200000F0A0FA22685068F7
:1019400008490140516022689068082188439060EE
:10195000FFE722681068012101431160200000F0B8
:10196000F3FA32BDFFF7FFFFF1B584B01F00064662
:101970005036F06A202861D10D000FD068460280F1
:10198000002A0BD00498816880204001814207D151
:1019900004980069002803D1E80701D501204EE032
:1019A000002474632120F06200F032FD01006846DB
:1019B000008830806846008870803A00049880680B
:1019C00080235B01984208D104980069002804D163
:1019D000049F0192029104001BE028000025F7E714
:1019E00021780185641C11E001980090029B00227F
:1019F0008021380000F00CFB00281BD13868002C37
:101A0000EED12988C905C90D0185AD1C7088401E1D
:101A1000708070880028E7D13800029B01990091FE
:101A20000022402100F0F4FA002803D12020F062C7
:101A3000002004E02020F062032000E0022005B036
:101A4000F0BD70B58023C358202B25D100290BD0C1
:101A5000130009D0846880235B019C4206D103698E
:101A6000002B03D1CB0701D5012070BD00230366F5
:101A700003685B681B020CD5EFF31083012484F329
:101A80001088066834688025ED042543356083F3AB
:101A9000108800F009FB70BD022070BDF8B584B05D
:101AA000040020680190C369206800680199896872
:101AB0000091260058362021014002912021194032
:101AC000039100254027A84919400BD1039900290B
:101AD0000DD0029900290AD03169002901D02000D7
:101AE00088473EE10099C90702D4A04901407AD055
:101AF000D90707D5C10505D5012201990A62F16A06
:101B00000A43F262990709D50099C90706D502214F
:101B100022681162F16A04220A43F262042213422B
:101B200008D00099C90705D521680A62F26A022126
:101B30001143F16208210B420AD0029A002A02D115
:101B4000009AD20704D522681162F26A1143F16249
:101B500079010B4007D0400105D520680162F16A88
:101B600020200843F062F06A002832D00398002851
:101B700007D00298002804D03169002901D0200044
:101B80008847F06A21688968394002D128210140DC
:101B900024D0200000F0EAFA20688068074019D0BD
:101BA000EFF31080012181F31088236899684022A7
:101BB0009143996080F31088F06900280AD06C493D
:101BC0004163F06900F04BFC002802D0F069416BE2
:101BD0008847C6E0200000F066FCC2E0200000F06C
:101BE00062FCF562BDE0B168012900D098E01021E7
:101BF0000B4200D0084200D192E00198016210200F
:101C0000C0430121C9432268926817404BD0F7694D
:101C10003A68526892B2002AE4D05823E35A9A42B2
:101C2000E0DA7280BA69202A35D0EFF31082009290
:101C3000012282F3108827683A684E4B13403B60BC
:101C4000009A82F31088EFF31087012282F3108844
:101C5000226893681940916087F31088EFF310872A
:101C6000012181F3108821688A6840239A438A60A1
:101C700087F310882021B162B560EFF31081012253
:101C800082F31088226813681840106081F310886E
:101C9000F06900F0C3FB0220F0605820205A7188E0
:101CA000411A89B238E05822A35A72889B1A6A46B0
:101CB00013807288002A54D06A461288002A50D0B5
:101CC000EFF310820192012282F3108827683A68AC
:101CD000294B13403B60019A82F31088EFF3108781
:101CE000012282F31088226893681940916087F37B
:101CF00010882021B162B5603561EFF310810122B7
:101D000082F3108823681A681040186081F31088E5
:101D10000220F06068460188200000F0C5FB20E04A
:101D200080210B4207D0014005D07169002918D0ED
:101D30002000884715E03B4013D0074011D0EFF357
:101D40001080012181F31088236819684022914393
:101D5000196080F31088202070627561200000F007
:101D6000A4FB05B0F0BD00000F0800002001000436
:101D7000E1210008FFFEFFFFDFFEFFFFF8B50500D1
:101D800000260024286802689B491140AA680A437B
:101D9000296911436A690A43E9691143016042688C
:101DA00096491140EA680A4342608168944A0A40B1
:101DB000A96911432A6A0A43826092480068800731
:101DC000800F05D0022809D006D3032802D007E0EF
:101DD000002206E0022204E0042202E0082200E0E1
:101DE0001022894F894880210902EB698B4220D15A
:101DF000002A06D0022A08D0042A15D0082A16D0B4
:101E000037E000F0BAFD002834D069684200480885
:101E10001018FFF7DFFB01001039B94229D2074043
:101E20000007400F38431CE000F08AFDEBE7080094
:101E3000EBE7002A06D0022A16D0042A16D0082A78
:101E400004D016E000F099FD010013D06A68500834
:101E500008181100FFF7BEFB01001039B94208D283
:101E600080B22968C86005E00100EFE700F068FD76
:101E7000EAE70124AE66EE662000F2BD2421415C53
:101E8000C90706D501684B68AD4A1A40836A1343F7
:101E90004B602421415C890706D501684B68A94A3B
:101EA0001A40C36A13434B602421415C490706D59D
:101EB00001684B68A44A1A40036B13434B6024210A
:101EC000415C090706D501684B68A04A1A40436B7C
:101ED00013434B602421415CC90606D501688B6819
:101EE0009B4A1A40836B13438B602421415C890613
:101EF00006D501688B68134A1A40C36B13438B6085
:101F00002421415C490611D501684B68944A1A4066
:101F1000036C13434B60036C80225203934205D140
:101F20004B68904A1A40436C13434B602421415C38
:101F3000090606D501684B688B4A1A40806C10432D
:101F400048607047FFDFFFFFFEB5060037007837B7
:101F50000024FC6000F05CFA0190202530680068E5
:101F6000000717D599480090019B002229043000F2
:101F700000F04EF800280DD0EFF31080012181F31E
:101F800010883368196880229143196080F31088A3
:101F90007D6026E030680068400725D58B480090BA
:101FA000019B00226904300000F032F800281BD0A9
:101FB000EFF31083012080F3108830680168844AB1
:101FC0000A40026083F31088EFF31080012181F34F
:101FD00010883368996801229143996080F31088D2
:101FE000BD603C700320FEBD7D60BD6034667466DC
:101FF0003C700020FEBD0000F369FFFFFFCFFFFF34
:10200000FFF4FFFF30100240F0FF000000127A00E2
:10201000FEB580273F01082600240500019168468F
:10202000027002932868C1690198084001998842AA
:1020300001D1012000E0002069460978884231D1B1
:1020400008990020C0438142ECD000F0E1F90299E8
:10205000411A0898884201D3002801D10320FEBD0F
:10206000286800684007DDD52868C06930402868C6
:1020700003D1C0693840D5D009E00662280000F0DD
:1020800075F828007830C66004700120FEBD28680D
:102090000762280000F06AF8290078312020C86023
:1020A0000C70DBE70020FEBD70B5416501005831C2
:1020B0000A804A8000230B618568FF248022520138
:1020C000954204D10569002D07D1424C05E0002D51
:1020D00005D10569002D00D07F248C8000E08B8025
:1020E000CB6222238B62EFF31083012484F31088E8
:1020F0000668B46801252543B56083F310888368BA
:1021000093420DD10269002A0AD1334A0A61EFF3E2
:102110001081012282F3108803681868202219E0D8
:102120002E4A0A6101690029F1D0EFF310810122E2
:1021300082F310880368186890225200EFE70000CD
:10214000FFFFFDFFFFFFFEFFFFFFFBFFFF7FFFFF26
:10215000FFEFFFFF02431A6081F31088002070BD7B
:10216000FFFFEFFFFFFF9FFFFFFFF7FF10B5EFF34C
:102170001081012282F3108804682268144B1340F6
:10218000236081F31088EFF31081012282F310881D
:102190000468A26801239A43A26081F31088016E4B
:1021A00001290BD1EFF31081012282F3108804681A
:1021B000226810239A43226081F310882022802114
:1021C000425000210166816610BD0000FFFFFF0143
:1021D000DFFEFFFFFF0100008F220008F52100084D
:1021E00080B5406A0200523200211181118000F056
:1021F0005AF901BD70B50100583102688B6A222B73
:1022000040D1938C8A881A40436D1A70426D521CDB
:1022100042654A88521E4A804A88002A36D1EFF326
:102220001082012383F3108803681D683F4C2C4003
:102230001C6082F31088EFF31082012383F310886F
:102240000568AB680124A343AB6082F310882022A9
:102250008A6200220A61CA6003685B681B020AD5B1
:10226000EFF3108384F3108806683468304D2540FE
:10227000356083F310888B68012B00D15AE000F0A1
:1022800044FC70BD916908200843906170BD70B531
:102290000100583102688B6A222B40D1938C8A88C6
:1022A0001A40436D1A80426D921C42654A88521E44
:1022B0004A804A88002A36D1EFF31082012383F343
:1022C000108803681D68194C2C401C6082F310882C
:1022D000EFF31082012383F310880568AB680124B3
:1022E000A343AB6082F3108820228A6200220A6135
:1022F000CA6003685B681B020AD5EFF3108384F39E
:102300001088066834680A4D2540356083F31088CC
:102310008B68012B00D10DE000F0F7FB70BD9169D7
:1023200008200843906170BD00000000DFFEFFFF41
:10233000FFFFFFFB8A60EFF31081012282F3108818
:102340000268146810239C43146081F310880368AA
:102350001021DA690A4000D019625821415A00F070
:10236000A3F870BD80B5274827490160E1214902E3
:10237000416000228260C26002610C214161826181
:10238000C26102624262FFF7B9FA002801D000F090
:10239000D9FB01BD10B586B004001421002201A8AC
:1023A00000F0E2FB21681848814229D117488021BA
:1023B000C90142680A434260426811400091009995
:1023C0008021890202680A4302600068014000918E
:1023D0000098C020C00001900220029001200390CC
:1023E00003210491059001A99020C00500F0C2FBD3
:1023F000002200211B2000F0B6FC1B2000F0B7FCDF
:1024000006B010BDE803002000380140141002405F
:1024100001484068704700BF5801002010B50021F6
:102420002122825C022A05D0042282632022815468
:10243000012010BD046822680E239A4322600468BC
:10244000226801239A4322600122046CA340C46BDA
:1024500063602123C25420228154002010BD70B536
:102460000021002401222123C35C022B03D004217C
:102470008163012415E0066833680E25AB433360A1
:102480000668336893433360056C0123AB40C56B2A
:102490006B602123C25420228154416B002900D05B
:1024A0008847200070BD704770477047FEB5050033
:1024B00019D0AE4E2878C00717D58027BF027068A4
:1024C0000C210140042909D071680C20084008281B
:1024D00041D170687908084088423CD13068074093
:1024E00003D06868002800D19EE1287880071AD5BB
:1024F000F827FF4371680C20084007D071680C2052
:10250000084008285AD17068C00357D43068800743
:1025100003D5E868012800D086E1306807402869C3
:10252000C000384330602878000779D50227E86971
:102530000028716A65D0012008437062FFF768FFC8
:102540000400706A38406BD1FFF762FF001B02285D
:10255000F7D90320FEBD6B687808012B09D0B44978
:10256000B44A002B09D0052B07D1316882000A43F9
:10257000326031680843306005E030680240326004
:10258000306801403160686800280BD0FFF740FFD9
:10259000040030683840A8D1FFF73AFF001B6528D7
:1025A000F7D3D6E7FFF734FF0400306838409CD0FB
:1025B000FFF72EFF001B6528F7D3CAE7E86800285D
:1025C0000FD03068012101433160FFF721FF040083
:1025D00030688007A1D4FFF71BFF001B0228F7D942
:1025E000B7E73168012081433160FFF711FF040034
:1025F0003068800797D5FFF70BFF001B0228F7D93B
:10260000A7E7012081437162FFF702FF0400706AAF
:10261000384005D0FFF7FCFE001B0228F7D998E7E9
:1026200004272868384063D000200190B806F1697B
:10263000014008D1F1690143F161F169084000905E
:102640000098012001907C480068C00512D47A48A7
:102650000168800D084378490860FFF7D9FE04003F
:1026600075480068C00505D4FFF7D2FE001B652839
:10267000F6D36EE7A868012801D1316A08E0002886
:1026800009D0052807D1306A38433062316A012009
:102690000843306206E0316A012081433162316AC9
:1026A000B9433162A4480090A86800280CD0FFF715
:1026B000AFFE0400306A800713D4FFF7A9FE011BA8
:1026C00000988142F6D344E7FFF7A2FE0400306A87
:1026D000800706D5FFF79CFE011B00988142F6D3C8
:1026E00037E70198002803D0F16994480840F06169
:1026F0002878C0061DD56969F824E443012937D13B
:10270000706B07437763716B012008437063FFF7B9
:102710007FFE0700706B800705D4FFF779FEC01BB2
:102720000228F7D915E7706B0440A869C000204360
:102730007063296A002979D072680C20104008283B
:102740005DD08027BF0492480229316849D10840F2
:102750003060FFF75DFE04003068384023D0FFF79B
:1027600057FE001B0228F7D9F3E600BF0010024015
:102770000420C043814203D1716B08407063D2E7EB
:10278000706B07437763706B012188437063FFF7B9
:102790003FFE0400706B8007CBD5FFF739FE001BAE
:1027A0000228F7D9D5E6F06A0F218843E96A014388
:1027B000F162716877480840A96A0143686A084372
:1027C00070603068790801433160FFF721FE040032
:1027D000306838402AD1FFF71BFE001B0228F7D9CA
:1027E000B7E608403060FFF713FE04003068384059
:1027F0001CD0FFF70DFE001B0228F7D9A9E601291E
:1028000012D07068F36A8021490201406A6A9142DD
:102810000AD11A07120FE96A8A4205D1F021890309
:102820000140A86A814201D00120FEBD0020FEBD0A
:10283000FFFFFBFFFFFFFEFF00700040F8B5040044
:1028400060D0009154480168C807C00F00998842C1
:102850000CD25148016801229143009A0A43026058
:102860000168C807C00F009988424BD120684B4DC2
:10287000022108420CD0400704D56A68E020C0005D
:10288000104368606868F0229043A26802436A605F
:1028900001272068384025D06068012802D12968C6
:1028A000890303E0022803D12968890103D429E0C0
:1028B0002A68114026D06968032291430843686062
:1028C000FFF7A6FD060069680C20084061688900D2
:1028D000884207D0FFF79CFD811B17488142F2D345
:1028E0000320F2BD2C48009A016839408A420BD27D
:1028F0000168B943009A0A430260006807400098E3
:10290000874201D00120F2BD2078400705D56968D3
:1029100023480840E1680143696000F011F821494B
:102920006A681206120F895CC8401F4908600320BC
:1029300000F042FA0020F2BD89130000FFFFFFEF14
:102940001A4A13681A480C211940082900D0704708
:1029500030B50F2119A59C0C0C402C5D926ADB034D
:1029600007D500BF19A31140595CFEF733FE604341
:1029700030BD20000F49484330BD0B4800680E4968
:102980000A4A12685205520F895CC840704700001D
:10299000FFFFFFFEFFFFC2FF0020024000100240C9
:1029A000FFF8FFFFEC49000864010020041002401A
:1029B00000127A0000093D00844A00080203040561
:1029C000060708090A0B0C0D0E0F10100102030474
:1029D00005060708090A0B0C0D0E0F10F8B500F0DC
:1029E0000DFA00F03EF800F019FA00F05BFAFFF77C
:1029F000B9FC00F0E7FA00F01AFB00F026FB00F04B
:102A0000BFFB494801F07EF8484801F07BF8484C8C
:102A10000122A11C4748FFF714F8474801F0CCFAFF
:102A2000464E474F0025607801280FD100F0A7FCE3
:102A30001B280AD13D700C2243A1300001F0D0FACE
:102A4000310000BF44A001F0D1FA65702078012860
:102A5000E9D100F0FDFC257001F030FB01F006FB30
:102A6000E1E770B594B03021002208A800F07CF8AE
:102A700010210022684600F077F81021002204A8F7
:102A800000F072F81220089001250B950D9510208A
:102A90000C900E900226109600241194A020800322
:102AA0001290139408A8FFF701FD002801D000F050
:102AB00049F807200090019602940394012168468A
:102AC000FFF7BCFE002801D000F03CF80495069406
:102AD00004A801F0CFFB002801D000F033F814B0B7
:102AE00070BD80B51149884202D101F041FC01BDA1
:102AF0000D49884208D10E4881884A1C322902DBE0
:102B0000012101700022828001BD38B5084D094CB9
:102B1000A04202D1A87800F0C1FE0122A91C200029
:102B2000FEF78FFF31BD0000780500203005002042
:102B30004C060020E8030020881300001801002044
:102B4000EB00002072B6FEE74869205665726D61A1
:102B5000207369720D0A0000363338373030303058
:102B600037350000002200BF094202D0491E4254FE
:102B7000FCD17047FFB50F23029307000800002126
:102B80002CE0052302E0634CA742FAD16C4624787E
:102B9000A3402B43019C23605F4B9D68D3431D40A2
:102BA0004468E40200D515435B4CA560E6681E400E
:102BB0004568AD0200D51643E66066681E4045686C
:102BC000AD0300D51643666025682B404568ED03CC
:102BD00002D51D0013002B432360491C026813001B
:102BE000CB4000D18EE001238B401A40F5D04C0041
:102BF0000326A640F54301954568AE07B60F012EA2
:102C000003D0AD07AD0F022D0ED1BD68019E2E4041
:102C1000C568A5403543BD607E689E434568EB06A8
:102C2000DB0F8B4033437B608D006B465D70037917
:102C30009B079B0F032B26D0FD68019B2B408568CB
:102C4000A5401D43FD6003799B079B0F022B1AD102
:102C5000CB089B00FE18336A03936B465B781C25F8
:102C60001D406B461D70039DAC46029B6D462D7842
:102C7000AB4065469D43AC4605696B461B789D405D
:102C800063461D4335623D680323019E2E4045681F
:102C90001D40A54035433D6045681C042C409CD038
:102CA00001241E4D2D6825431C4E356035462D6888
:102CB00025400195019D1A4E8D08AD0075190195AD
:102CC000019D2D6803956D466D780C262E406D464E
:102CD0002E70039DAC46029E6D462D78AE40654633
:102CE000B5439026F605B74201D100234EE70D4EBD
:102CF000B74201D1012349E70B4CA74200D042E77C
:102D0000022343E7FFBD002A01D081617047816241
:102D100070470000000C00480004014018100240F9
:102D200008000140000400480008004810B5C30036
:102D300018221A40FF249440E3438907090E91406A
:102D4000020004D4184892089200821806E0174A3C
:102D50000007000F08388008800012181068034030
:102D60001943116010BD80B5FFF7E0FF01BD010000
:102D700005D40121C006C00E81400D480160704796
:102D800010B5401E80214904884201D3012010BDA6
:102D9000084C606003210020C043FFF7C7FF0020FC
:102DA000A0600721216010BD00E400E01CED00E000
:102DB00000E100E010E000E038B505000D4CFA201D
:102DC00080002178FEF706FC01000B480068FEF742
:102DD00001FCFFF7D5FF00280AD1042D08D20022FC
:102DE00029000020C043FFF7BEFFA560002032BDD0
:102DF000012032BD580100206401002080B5064A40
:102E000010681021014311600320FFF7D5FF01F086
:102E1000E9FA002002BD000000200240F8B586B0AB
:102E20001421002201A8FFF79FFE802189021A4881
:102E300002680A43026002681140009100998021F3
:102E4000C90202680A4302600068014000910098CC
:102E5000124C9027FF05002221003800FFF753FF96
:102E60000F4E0022F9213000FFF74DFF019401259C
:102E7000029500240394049401A93800FFF77AFE18
:102E8000F920019002950394049401A93000FFF702
:102E900071FE07B0F0BD00BF141002404098000062
:102EA00000040048FEB50021684601604160816071
:102EB000414D4248286000266E60AE60EE600124FD
:102EC0002C6104276F61AE61FF20C230E8612E6281
:102ED00024202954AC62280001F09CFA002801D07B
:102EE000FFF730FE0096200301900004029069462F
:102EF000280001F049FB002801D0FFF723FE0094D1
:102F00006946280001F040FB002801D0FFF71AFEB7
:102F1000022000906946280001F036FB002801D00D
:102F2000FFF710FE032000906946280001F02CFBFB
:102F3000002801D0FFF706FE00976946280001F03F
:102F400023FB002801D0FFF7FDFD05200090694616
:102F5000280001F019FB002801D0FFF7F3FDF7BDB1
:102F600010B586B004001421002201A8FFF7FCFD73
:102F70002168124881421CD11148410D42680A4320
:102F800042604268114000910099802189020268E4
:102F90000A43026000680140009100983F200190C0
:102FA000032002900020039001A99020C005FFF7A4
:102FB000E1FD06B010BD0000040600200024014021
:102FC0001410024038B586B01021002202A8FFF785
:102FD000CBFD0021684601604160434D43482860B5
:102FE000102068600024AC60FF209030E8602C6105
:102FF000AC61280000F076FD002801D0FFF7A2FDAB
:1030000080204001029002A9280000F0E4FE002880
:1030100001D0FFF797FD009401946946280001F064
:103020003BFB002801D0FFF78DFD07B030BD80B518
:103030002F483049016010214160002282602E49F2
:10304000C1600261426182610FE080B52B482C496A
:103050000160F0214900416000228260FA2189006C
:10306000C160026142618021816100F03BFD002866
:1030700001D0FFF767FD01BD80B5016821481B4AFB
:10308000914208D1022142680A43426040680140EF
:103090000091009801BD174A91420FD18021890209
:1030A00002680A4302600068014000910098002213
:1030B00000211520FFF757FE152011E0104A91421C
:1030C00010D18021C90202680A43026000680140F1
:1030D00000910098002200211620FFF744FE1620E0
:1030E000FFF745FE01BD0000E80400200004004099
:1030F0003005002000440140570200007805002000
:10310000004801401810024010B50400FEF77CF89A
:10311000FA23DB0082B22100A848FEF725FC10BD8F
:1031200010B50400072001F048F9A34A01201075EA
:1031300000215174D07400F035F92000FFF7E4FF4E
:1031400010BDF8B505000F000024FEF75DF8C6B20B
:103150003800FEF759F8C0B20095050000E0641C85
:10316000E3B2B3420ADA2A0039000098C01801F02D
:10317000BFFA0028F3D16019C0B2F2BD0020F2BD41
:1031800010B58F492BA088612EA0C86132A20A62B7
:10319000A8A0486232A38B62C8620A63486300BF7A
:1031A00031A28A6333A2CA6334A20A64486400BFAE
:1031B00035A28A64C86400BF36A20A6538A24A658F
:1031C00039A28A65C86500BF3AA20A663CA24A666F
:1031D0003DA28A663FA2CA6640A20A67486700BF4E
:1031E00041A28A6743A2CA6744A380228B508431DC
:1031F000086000BF44A24A6088608FA3CB600B6167
:103200004B618B61CB610B6242A44C6244A48C6223
:1032100045A4CC6208634A638863CB630B6400BF38
:1032200045A24A64886496214900072001F0C0F84D
:1032300010BD000041542B51504F57443D310D0AF1
:10324000000000004E4F524D414C20504F57455208
:1032500020444F574E000000415445300D0A0000F5
:1032600041540D0A0000000041542B4350494E3F89
:103270000D0A0000524541445900000041542B43BF
:10328000494D490D0A0000002041542B5143434948
:10329000440D0A0041542B435245473F0D0A00009C
:1032A0002B435245473A000041542B435245473D7A
:1032B000310D0A0041542B4353510D0A0000000008
:1032C0002B4353513A0000002041542B434F50539D
:1032D0003F0D0A002B434F50533A000041542B43FB
:1032E000545A553D310D0A0041542B43434C4B3F3A
:1032F0000D0A00002B43434C4B3A000041542B4332
:10330000434C4B3D0000000041542B434D47463D8C
:10331000310D0A0041542B434D47523D310D0A00F7
:103320002B434D47523A00002041542B434D474414
:103330003D312C340D0A00004154480D0A000000B4
:103340000FB410B53D4C200002A94422FDF770FFD8
:10335000207803280FD16078042802DA00F012F8F0
:1033600009E0172807D100F00DF835480021C17594
:10337000017601218176019810BC05B000473048E4
:10338000807B70470021032801DB022200E000223D
:103390002B4B987301201875D9735975997519734A
:1033A0009A74704780B564212648FFF7DBFB002143
:1033B0000148417401BD0000D4000020E803002052
:1033C000E8010020F8B51E4DA87C022831D1687DA7
:1033D00000282ED101271C4EA87D00280BD11B49A7
:1033E00016484180A87BC0003058FFF799FE00289E
:1033F0001FD1AF75F1BD072000F0E3FF002802D117
:10340000E87C002815D10024AC75A87BC0003018DA
:1034100041680C48FFF795FE010002D00022AC7411
:1034200005E0E97B4A1C022901DD0022AF746876C1
:10343000EA73F1BD4F4B000020000000C0050020E2
:10344000D4000020C8020020E8010020A86100008C
:10345000F8B500F0F7F9FFF7B5FFB34CB348617E5C
:103460004018A37C00250126B14FA17B491E1A29D3
:1034700060D802A24900525A974400BF3600720039
:10348000840098007E038E00AA00FC0006011C0147
:1034900086019001BC011A022C027E038A027E037F
:1034A0007E037E03C0020C0320037E0326037E03FB
:1034B00048037E749F4E012201213000FFF723FC58
:1034C000642000F079FD002201213000FFF71BFC91
:1034D000642000F071FD012201213000FFF713FC90
:1034E0009549122000F069FF2575022073E1122032
:1034F00000F067FF01281DD1A673257504206AE13D
:10350000002B4AD12575002065E1002B45D125759A
:10351000072060E1002B02D1257506205BE1012B1D
:1035200008D1042035E1002B05D125750820FFF7CF
:1035300029FFBD74F1BD012BFCD10B22002120001D
:1035400001F0EDF8B87C411C6A461170032806DBD7
:10355000684605700020FFF715FF267502E0012080
:10356000FFF710FF68460078B874E5730722A34997
:10357000200000F035FDF1BD002B0ED1257509208E
:1035800029E1002B09D125750A20FFF7FBFEC04970
:10359000122000F012FFF1BD002B00D0F6E04178C0
:1035A0003039062923D2C078352801D031280AD1F4
:1035B00025750C20FFF7E6FE072200BF90A1200032
:1035C00000F00EFD07E00A228FA1200000F008FDA8
:1035D0000A20FFF7D7FE122000F0F3FE012805D1E4
:1035E0000B220021200001F09AF8A673F1BDA67409
:1035F0000A20FFF7C7FE082286A1200000F0F0FC99
:10360000F1BD002B51D125750A20E4E0002B4CD1EF
:1036100081782C2908D0C2782C2A05D142780A203A
:1036200042435018F03001E04078D0304100081893
:10363000607325750D20CEE0002B36D100260B22BD
:103640000021200001F06BF8607E384F391849796D
:1036500022290ED1B91DF2B28218895C222904D028
:1036600031004E1CC9B20A29F4D3F0B20B2800DB9A
:103670000A260B220021200001F051F8F6B2320098
:10368000B91D607E0918200000F0AAFCA555A5729E
:1036900025750E209FE0002B02D125750F209AE0A2
:1036A000012B2FD10E2074E0002B6FD14575122213
:1036B000811C20001C3000F093FC082221001C31EA
:1036C0003800243000F08CFC08222100253138001D
:1036D000143000F085FC082239002431380000F055
:1036E0007FFC262038720522390014313800093059
:1036F00000F076FC2575787C01286BD11120FFF74E
:1037000041FE7D74F1BD002B40D12575387C002829
:1037100007D13E746B48067041A100BF42A000F083
:1037200065FC162057E000BFD4000020C80200202E
:10373000600300200004004810270000002B1FD168
:1037400025748179552916D10A22010012313800D9
:10375000343000F045FC46225B48617E41183B3125
:103760003800403000F03CFC390040313800343043
:1037700000F03CFCF1BD1620FFF704FE2575F1BDFD
:10378000012B3AD1162004E0002B2DD0012B34D18F
:103790000020FFF7F7FD2675E573F1BD00F098F8FE
:1037A000F1BD617DA07D084327D1FA2189004748FA
:1037B0000068FFF7B5FC00281FD1A57525751B20F3
:1037C000A073F1BD404E00BF1AA13000FFF7B9FC55
:1037D000002803D01520FFF7D5FDF1BD17A130005B
:1037E000FFF7AFFC002803D025751B20A07302E073
:1037F000607D002801D1FFF7D5FDF1BD284A000802
:103800004E455420524547005365617263682E2E21
:103810002E000000524547204641494C0000000060
:103820005354415455530000383536323938383501
:10383000323000002B434D54493A000052494E4764
:103840000000000038B500259B4C0C2000F0B9FDAD
:10385000012808D1607D002805D0E57465757821C0
:10386000072000F0A5FD072000F0AFFD01280ED1D4
:1038700096214900072000F09BFD25750720FFF7E2
:1038800081FD062203A1200000F0AAFB657331BD73
:10389000C0270900574149542E2E000038B50400B6
:1038A000854D687D002803D101206875002068746B
:1038B00032210C2000F081FD6A7C03488454521CA4
:1038C0006A7431BD00000020C8020020B002002050
:1038D000F0B5A9B00025794E7573774CA37D617D55
:1038E00077480200BC3200920127227B002A06D0D2
:1038F000022A6DD02BD3032A00D17EE066E0002996
:1039000064D1002B07D1FA218900A27BD200805814
:10391000FFF706FC7FE0072000F053FD002802D1EE
:10392000E07C002852D1A575009801686548FFF732
:1039300008FC217B002804D0491C00222173E2737B
:1039400044E0E07B421C0228F8DD0021F6E7002974
:103950003CD1002B0CD1A02201A800F0E0FE3200E7
:103960005CA101A800F0E6FEFA21890001A850E060
:10397000072000F026FD002802D1E07C002825D198
:10398000A57551A14F48FFF7DCFB002817D0B07C8C
:1039900001280DD1B5740320207314223100143195
:1039A00001A800F01DFB494901A8FFF7B9FB0DE094
:1039B000207B401C2073E573E775277606E0E07BEB
:1039C000411C022801DD25730021E17329B0F0BDFF
:1039D000E07D01280CD1207E012809D1FA2189003F
:1039E00030001430FFF79CFB0028EFD12576EDE77F
:1039F00003202073E573A576E8E70029E6D1002BC4
:103A00000DD101A80D2101701A2141708170C5707E
:103A10002E49FFF785FB0028D8D1A775D6E70720E8
:103A200000F0CFFC002802D1E07C0028CED1A575A3
:103A3000009801682348FFF784FB002805D124A1E2
:103A40002048FFF77EFB00281ED025742573E57300
:103A50002575707B00280DD13F22002130001430E5
:103A600000F05DFE1620FFF78DFC707C002806D06C
:103A7000757404E01720FFF785FC37747573F07CCC
:103A80000128A3D1F574A1E7217C481C20740129E9
:103A900003DCE5750220207398E775732573E573E1
:103AA000357425751620FFF76DFC3F22002130008C
:103AB000143000F034FE89E7D40000200401002017
:103AC000E8010020C80200203E000000A08601009E
:103AD0004F4B000041542B434D47533D2225732249
:103AE0000D0A000010B5040001D1012010BD3D20D9
:103AF000205C002805D100213C2021542000FFF744
:103B0000BBFA20E03D21415C012901D00120704732
:103B100002223D21425403680121DA680A43DA6037
:103B20000268184B9A4202D0174B9A4205D192680C
:103B30005207520F062A04D0026812681143006827
:103B400001600020704702213D202154211D206882
:103B500000F0AAF90120462160543E2160543F2123
:103B600060544021605441216054422160544321FB
:103B7000605444216054452160543D21605400202C
:103B800010BD0000002C01400004004004000E00A5
:103B90000021684601700125300006D0042E37D080
:103BA000082E3CD00C2E41D047E02068C2682E4938
:103BB0001140C160606AFEF752FC002231002068AB
:103BC00000F0ECF9276829482949244A974205D092
:103BD000234A974202D0234A974209D13A6A0A40BF
:103BE00006D13A6A024003D17A6C224B13407B64BF
:103BF00023681A6A114007D1196A084004D118468F
:103C00000068A84319460860002E19D13E2020E024
:103C10002268D06818490140D160A06ACBE72268C9
:103C2000D06816490140D160E06AC4E72268D068D4
:103C300013490140D160206BBDE76846057009E07B
:103C4000042E01D13F2004E0082E01D1402000E0E5
:103C50004120255468460078F2BD0000002C014048
:103C60000044014000480140FFFDFFFF4404000004
:103C700011110000FF7FFFFFFFFBFFFFFFF7FFFFBA
:103C8000FFEFFFFFF8B50600306800240225016948
:103C9000294015D0C168294012D00221C9430161D1
:103CA000012131778069800703D0300000F062FD88
:103CB00005E0300000F05FFD300000F05DFD34777E
:103CC000306804270169394016D0C168394013D0E3
:103CD0000421C943016135778169C0208000084013
:103CE00003D0300000F046FD05E0300000F043FD59
:103CF000300000F041FD3477306808250169294023
:103D000014D0C168294011D00821C9430161377717
:103D1000C069800703D0300000F02CFD05E03000C2
:103D200000F029FD300000F027FD347730681021C5
:103D300002690A4016D0C268114013D01021C9434D
:103D400001613577C169C0208000084003D0300090
:103D500000F010FD05E0300000F00DFD300000F037
:103D60000BFD34773068012102690A4008D0C2682F
:103D7000114005D00121C94301613000FEF7B1FEB9
:103D80003068802102690A4008D0C268114005D01D
:103D90008021C9430161300000F0EFFC3068402110
:103DA00002690A4008D0C268114005D04021C943C9
:103DB0000161300000F0E2FC3068202102690A4015
:103DC00008D0C268114005D02021C94301613000EC
:103DD00000F0D5FCF1BDF8B5040000266846067079
:103DE0003C20205C012801D10220F2BD27003C3795
:103DF00001253D7002223D20225423689868294AFB
:103E000002409A60086803003FD010283DD0202867
:103E10003BD0302839D0402830D0502820D06028DE
:103E200025D0702806D02A03904235D05200904207
:103E30000AD02FE0CB684A688968206800F0A0F8B3
:103E400022689068772108E0CB684A688968206812
:103E500000F096F822689068A903014391601BE086
:103E6000CA684968206800F05DF850210EE0CA6811
:103E70004968206800F067F8602107E0CA6849686F
:103E8000206800F04FF8402100E00100206800F0B9
:103E90006FF801E0684605703D2025543E70FFF73D
:103EA000D9FE00008800FFFFF0B50568184F194AD9
:103EB000194B1A4CA04201D0984206D17026B54346
:103EC0002E004D683543A04208D0984206D0144BCE
:103ED000984203D0904201D0B84203D1234B2B40EB
:103EE000CD681D4380239D434B692B4303608B6842
:103EF000C3620B688362A04203D0904201D0B842F3
:103F000001D10969016301214161F0BD0000000098
:103F1000004801400044014000040040002C0140E2
:103F20000020004030B5036A056A0124A5430562FC
:103F30008469F025AC431201224382610A22934333
:103F40001943016230BD30B5046A10239C430462FA
:103F50008569036A0F4C2C40120322438261A02220
:103F6000934309011943016230BD0000FFFCFFFFCC
:103F7000836870229343194307220A438260704783
:103F800030B58568044C2C4021430A431902114383
:103F9000816030BDFF0FFFFFFF00FFFF10B5C906B6
:103FA000C90E046A01238B409C430462036A8A4061
:103FB0001A43026210BDFEE738B50400FEF728FA86
:103FC00005000020C043844202D004480078241831
:103FD000FEF71EFA401BA042FAD331BD5801002063
:103FE00010B50400FDF73EF9200010BD10B59EB0DD
:103FF0000C0012494C60086003220DA90A701722B8
:104000004A700D2201000E48FFF7EAFF2000FDF77D
:10401000FBF8020021000B48FFF7E2FFFA21C9007C
:104020000DA841800DA984B068464422FDF700F92F
:104030000FBCFFF785F91EB010BD0000440600203C
:10404000040100201801002010B50400FDF7DCF881
:10405000C0B20A2808DB2078012805D00120401CC6
:104060000A28FCDD012010BD002010BD7A48007830
:10407000012800D0704738B5FFF781F9122817DB07
:10408000FFF77DF91B2813D1744DA97803290FD8A8
:104090002C00C8342000FFF7D7FF012808D1E878AA
:1040A000012800D1287100BF02A12000FFF79EFF68
:1040B00031BD00005354415455530000F8B5684CCD
:1040C0002078012846D1654D28892F009437002695
:1040D000FA21890000912978012900D084E029790A
:1040E000012938D1022877DC032429890C20484390
:1040F0002818698989004018406EFDF785F802008C
:1041000028890C2141436818698989004018416E4B
:10411000A8893818FFF764FF29890C20484328181C
:10412000698989004018406EFDF76EF8A989081862
:10413000A8816E81641ED8D100993800FEF7F0FF87
:10414000A889821C0021380000F0E9FAAE81288994
:10415000401C2881F1BD07283EDA6E8141A42989DF
:104160000C20484328186989890040180069FDF728
:104170004BF8020029890C204843281869898900D6
:1041800040180169A8893818FFF72AFF29890C20EF
:10419000484328186989890040180069FDF734F8F8
:1041A000A98908186989002908D1A881012221005C
:1041B00080B23818FFF714FFA889401CA8816889CD
:1041C000401C688180B20228C9DD00993800FEF7E2
:1041D000A7FF0028B4D0F8E72E70267022490E7091
:1041E00022490E702E8134E06978012925D10728F3
:1041F0001ADA6E811BA401E0000408D1012221001B
:10420000A8893818FFF7ECFEA889401CA8816889A6
:10421000401C688181B20229EEDD00993800FEF76A
:104220007FFF0028F9D18BE726700F4806702E819A
:104230006E816E700D480670F1BD00990C48FEF756
:104240006FFF0028F9D12670074806702E810749B4
:104250000E706E81F1BD00005206002000000020AB
:10426000EE0000203A000000EB0000205306002082
:1042700018010020F8B50600374C3068C00356D549
:1042800000200090802040052168014008D121686D
:1042900001432160216808400090009801200090AF
:1042A0002E4F3868C00510D43968A00D0843386017
:1042B000FEF7AEF805003868C00506D4FEF7A8F88A
:1042C000401B6528F7D30320F2BDC022920060682E
:1042D0001040234F00281ED071680A4090421AD027
:1042E00060683840626880214902114361606268F9
:1042F0001C49114061606060C0070CD5FEF788F86A
:1043000005006068800706D4FEF782F8411B164856
:104310008142F6D3D7E76068074070683843606031
:104320000098002803D021681048084020603078A9
:10433000C00705D5606903218843B1680143616105
:104340003078800605D5606910218843F168014303
:1043500061610020F2BD00001C10024000700040AE
:10436000FFFCFFFFFFFFFEFF89130000FFFFFFEFD1
:1043700010B50020002319499A008C182268002AE1
:1043800001D0521E22605B1C142BF5DB4C6F621CAB
:10439000134B9C420AD300228300CC18236D002BC0
:1043A00001D05B1E2365401C0928F5DB4A6710BD60
:1043B0000A4A8000101801657047084A80001150B1
:1043C000704706498000095803E004498000081836
:1043D000016D88B2401E8041C00F704770040020FC
:1043E0003A11000081B00121094802680A430260C5
:1043F00002681140009100998021490542680A43F2
:104400004260406801400091009801B0704700BFD1
:1044100018100240F8B504000025002C01D101203D
:10442000F2BDA06B002805D1E063342025542000A4
:10443000FEF796FD10210122A06B084003D12768EA
:104440000420BB68034000D091E0A36B4B4E1E409C
:1044500002233343A363BB689B079B0F012B06D149
:104460003B461B6813400FD1FB681B040CD4FB6850
:104470001826B343A6681E43FE6027683B699B006D
:104480009B0866681E433E612768FB683C4E1E40E1
:10449000FE60A36A012B01D0860200E0002623699A
:1044A000022B01D1009000E00095A37E207E8003C6
:1044B000677EFF030743580338430643E0683043F1
:1044C000009E06432420205C40003043E67E012EFF
:1044D0000CD1002B03D103000803184306E0A66BA0
:1044E00020233343A363E36B1343E363E369FF26B2
:1044F000C236B34202D00343206A18432668F368E9
:104500000343F360E66A0B069E420DD0012E0BD0EA
:10451000022E09D0032E07D0042E05D0052E03D07D
:10452000062E01D0072E0CD127687B690726B343DE
:104530007B6127687B692C26A65D7607760F1E4374
:104540007E610227FF432368DB680E4E1E408642D1
:1045500005D1E563A06B07403A43A2630BE0A06B73
:1045600007403943A163E06B1043E06302E0A06BB6
:104570000143A16301252800F2BD0000FFFEFFFFFB
:104580001902FEFFE7FF3F83F8B50600002400256F
:1045900000943420305C012801D10220F2BD0122B8
:1045A00034203254306883685B075ED40B689A40CD
:1045B0000092334F4A68334B9A4246D0826A009B3E
:1045C00013438362F06A8022520590421FD0012873
:1045D0001DD002281BD0032819D0042817D0052885
:1045E00015D0062813D0072811D030688A6843698F
:1045F0005B075B0F9A420AD04369072293434361EA
:10460000336858690A7A5207520F02435A610868A0
:10461000102817D011282DD18020C0033A681043EC
:1046200038600868102825D1174800681749FCF73A
:10463000D1FF0A2148430090009800281AD0009822
:10464000401EF8E780200004E8E7836A009A93435D
:1046500083620868102806D011280BD10C493868ED
:104660000140396006E00B49F9E7B16B20200843AF
:10467000B0630125342034542800F2BD000000004E
:1046800008270140011000006401002040420F0093
:10469000FFFFBFFFFFFF7FFFF0B53C22825C012AD6
:1046A00001D10220F0BD07003C3701223A700224FC
:1046B0003D23C45403685D689C687026B5430E684A
:1046C0002E435E600368084DAB4202D0074DAB42FB
:1046D00004D18025AC434968214399603D2142546F
:1046E00000203870F0BD0000002C014000040040A4
:1046F00010B4002A10D00B7804789C4206D1002C0C
:104700000AD0401C491C521EF5D105E002D20020FF
:10471000C04302E0012000E0002010BC704710B54B
:1047200004000800110002002000FEF71DFA20001E
:1047300010BDFEE70CB418B583B004000A0006A84B
:10474000029001940020009002AB01A9084878442F
:104750001E30FBF7B1FC002201990A70002801D439
:104760000198001B04B0019910BC03B0084700BFBA
:10477000A7C9FFFF70477047704770477047704781
:10478000686A6C747A4C00007072696E74665F734C
:104790003A20256E20646973616C6C6F77656400E4
:1047A0007072696E74663A2062616420256E2061C1
:1047B0007267756D656E74007072696E74665F7392
:1047C0003A2062616420257320617267756D656EA1
:1047D00074000000000000007072696E74665F7300
:1047E0003A2062616420256C7320617267756D6583
:1047F0006E740000000000006E616E004E414E00BD
:10480000696E6600494E46003000F1B401684118F7
:10481000436858080A1800988068DB0701D54B46A2
:10482000C01891422DD00D78491C032403262E4038
:1048300002D10E78F61C491C2B090F2B07D10B78DF
:104840000F33491C03E00F78491C0770401C761E8B
:10485000F9D1002BE5D00E78491CAD082C40032C73
:1048600001D10C78491C240235196C420519002429
:10487000A61E9E42D5D02E786D1C0670401C641C6E
:10488000F6E700980C30F2BC7047FEE7FEE7FEE763
:104890007047704780B500F017F801BD80B5074834
:1048A000FFF7F0F901BD80B50548FFF7EBF901BD51
:1048B00080B50448FDF7F2F801BD00003005002086
:1048C00078050020E803002002484268017851186A
:1048D000416070475801002070B40121002213E0AC
:1048E0000368001D0B4202D04D46EB185B1E1A6098
:1048F0001B1D241F042CFAD21D00A60701D51A8007
:10490000AD1C0C4000D02A700468001D002CE7D1BB
:1049100070BC704710B5034A7A440832024C7C449C
:10492000A41D03E01C0000003800000004E0101D7E
:104930001168511888470200A242F8D110BD00004A
:1049400099FFFFFF70040000E80100200000000054
:10495000BBFEFFFF4F0100003401000000000020FB
:10496000FEE7000000F00DF8002801D0FFF7D2FFAD
:1049700000BF00BF002000BF00BFFEF72FF800F00F
:1049800002F80120704780B500F002F801BDFEE793
:1049900007463846FCF7A8FFFBE7FEE70548014657
:1049A00003B4684680F3098800BF00BF00BF00BFA2
:1049B000FFF7D8FFA5EDF5FEFF2902D90020C0437F
:1049C00070470170012070470078401E8041C0434D
:1049D000C00F704731382F30332F3234202620312A
:1049E000353A30330000000070470000000000003E
:1049F0000000000001020304060708094E4F544955
:104A00004649434154494F4E000000000148804749
:104A100001480047E94900089D4900084D5050549D
:104A20002053595354454D004E4F542053494D2067
:104A300000000000414C45525453000020352F35F2
:104A40000000000050554D5000000000204F4E2047
:104A50000000000041444320520000004F4B4159E8
:104A6000000000004144432059000000414443201D
:104A7000420000004461746500000000204F46467B
:104A8000000000000000000001020304534E00007B
:104A90000D0A0000FEE7FEE7FEE7FEE7FEE7FEE7A1
:104AA000FEE700D2000110031C4A000834041290F3
:104AB00004128C04523C0C124404524C0C12540448
:104AC000525C0C92640C926C0C12740443D4490C2A
:104AD000215483FC4948F2027C24F23A000120036D
:104AE000576169742E01315512010650010301030B
:104AF00061F0110132372D30352D323032322F3105
:104B0000343A35303A31307BF231018E6143220440
:104B1000081002127A00A2E4F1070452FF01E3BE7A
:104B2000111420040000161200084CF0021768014E
:0D4B300000209647C9495043B9493C210176
:040000050800499D09
:00000001FF
